{
  "abi": [
    {
      "inputs": [
        {
          "internalType": "uint256",
          "name": "salt",
          "type": "uint256"
        },
        {
          "internalType": "uint256",
          "name": "n",
          "type": "uint256"
        }
      ],
      "name": "getGaussianRandomNumbers",
      "outputs": [
        {
          "internalType": "int256[]",
          "name": "",
          "type": "int256[]"
        }
      ],
      "stateMutability": "view",
      "type": "function"
    }
  ],
  "bytecode": {
    "object": "0x608060405234801561001057600080fd5b50610306806100206000396000f3fe608060405234801561001057600080fd5b506004361061002b5760003560e01c8063a17b1fe014610030575b600080fd5b61004361003e366004610199565b610059565b60405161005091906101bb565b60405180910390f35b606060006100674285610215565b905060008160405160200161007e91815260200190565b6040516020818303038152906040528051906020012060001c905060008467ffffffffffffffff8111156100b4576100b461022d565b6040519080825280602002602001820160405280156100dd578160200160208202803683370190505b50905060005b858110156101705760006100f68461017a565b9050613e8061010682607d610243565b6101109190610262565b838381518110610122576101226102a1565b6020026020010181815250508360405160200161014191815260200190565b6040516020818303038152906040528051906020012060001c9350508080610168906102b7565b9150506100e3565b5095945050505050565b60005b81156101945760001982019091169060010161017d565b919050565b600080604083850312156101ac57600080fd5b50508035926020909101359150565b6020808252825182820181905260009190848201906040850190845b818110156101f3578351835292840192918401916001016101d7565b50909695505050505050565b634e487b7160e01b600052601160045260246000fd5b60008219821115610228576102286101ff565b500190565b634e487b7160e01b600052604160045260246000fd5b600081600019048311821515161561025d5761025d6101ff565b500290565b60008083128015600160ff1b850184121615610280576102806101ff565b6001600160ff1b038401831381161561029b5761029b6101ff565b50500390565b634e487b7160e01b600052603260045260246000fd5b6000600182016102c9576102c96101ff565b506001019056fea26469706673582212203cb05070e6f3ed121714cc66e8413e1b71756edfeee6241588275f4378332de064736f6c634300080d0033",
    "linkReferences": {}
  }
}