{
  "abi": [
    {
      "inputs": [
        {
          "internalType": "uint256",
          "name": "salt",
          "type": "uint256"
        },
        {
          "internalType": "uint256",
          "name": "n",
          "type": "uint256"
        }
      ],
      "name": "getGaussianRandomNumbers",
      "outputs": [
        {
          "internalType": "int256[]",
          "name": "",
          "type": "int256[]"
        }
      ],
      "stateMutability": "view",
      "type": "function"
    }
  ],
  "bytecode": {
    "object": "0x608060405234801561001057600080fd5b50610378806100206000396000f3fe608060405234801561001057600080fd5b506004361061002b5760003560e01c8063a17b1fe014610030575b600080fd5b61004361003e36600461020b565b610059565b604051610050919061022d565b60405180910390f35b606060006100674285610287565b905060008160405160200161007e91815260200190565b6040516020818303038152906040528051906020012060001c905060008467ffffffffffffffff8111156100b4576100b461029f565b6040519080825280602002602001820160405280156100dd578160200160208202803683370190505b50905060005b858110156101795760006100f684610183565b9050610101816101a2565b613e8061010f82607d6102b5565b61011991906102d4565b83838151811061012b5761012b610313565b6020026020010181815250508360405160200161014a91815260200190565b6040516020818303038152906040528051906020012060001c935050808061017190610329565b9150506100e3565b5095945050505050565b60005b811561019d57600019820190911690600101610186565b919050565b6101e7816040516024016101b891815260200190565b60408051601f198184030181529190526020810180516001600160e01b031663f5b1bba960e01b1790526101ea565b50565b80516a636f6e736f6c652e6c6f67602083016000808483855afa5050505050565b6000806040838503121561021e57600080fd5b50508035926020909101359150565b6020808252825182820181905260009190848201906040850190845b8181101561026557835183529284019291840191600101610249565b50909695505050505050565b634e487b7160e01b600052601160045260246000fd5b6000821982111561029a5761029a610271565b500190565b634e487b7160e01b600052604160045260246000fd5b60008160001904831182151516156102cf576102cf610271565b500290565b60008083128015600160ff1b8501841216156102f2576102f2610271565b6001600160ff1b038401831381161561030d5761030d610271565b50500390565b634e487b7160e01b600052603260045260246000fd5b60006001820161033b5761033b610271565b506001019056fea26469706673582212208768a73323945e0b50a9cfbbda103cbd4a5e331aff024c467694c7c21c5d1c4064736f6c634300080d0033",
    "linkReferences": {}
  }
}