{
  "abi": [
    {
      "inputs": [
        {
          "components": [
            {
              "internalType": "uint256",
              "name": "height",
              "type": "uint256"
            },
            {
              "internalType": "uint256",
              "name": "width",
              "type": "uint256"
            },
            {
              "internalType": "string",
              "name": "t",
              "type": "string"
            },
            {
              "internalType": "int128",
              "name": "value",
              "type": "int128"
            }
          ],
          "internalType": "struct Matrix.InstantiationParam",
          "name": "ip",
          "type": "tuple"
        }
      ],
      "name": "instantiateMatrix",
      "outputs": [
        {
          "internalType": "int128[][]",
          "name": "m",
          "type": "int128[][]"
        }
      ],
      "stateMutability": "pure",
      "type": "function"
    },
    {
      "inputs": [
        {
          "internalType": "int128[][]",
          "name": "m",
          "type": "int128[][]"
        }
      ],
      "name": "shape",
      "outputs": [
        {
          "internalType": "uint256",
          "name": "",
          "type": "uint256"
        },
        {
          "internalType": "uint256",
          "name": "",
          "type": "uint256"
        }
      ],
      "stateMutability": "pure",
      "type": "function"
    }
  ],
  "bytecode": {
    "object": "0x61103961003a600b82828239805160001a60731461002d57634e487b7160e01b600052600060045260246000fd5b30600052607381538281f3fe73000000000000000000000000000000000000000030146080604052600436106100875760003560e01c8063a701d66111610065578063a701d6611461010a578063e014a36a1461012a578063e8bbde9e1461014a578063f6a18fc01461016a57600080fd5b806373d2bc291461008c578063953cf665146100c25780639a16d497146100e2575b600080fd5b81801561009857600080fd5b506100ac6100a7366004610cc1565b61017d565b6040516100b99190610d25565b60405180910390f35b8180156100ce57600080fd5b506100ac6100dd366004610db2565b61030b565b6100f56100f0366004610e00565b61043b565b604080519283526020830191909152016100b9565b81801561011657600080fd5b506100ac610125366004610e00565b61047c565b81801561013657600080fd5b506100ac610145366004610e00565b6105df565b81801561015657600080fd5b506100ac610165366004610db2565b6106f0565b6100ac610178366004610e3d565b610816565b606060008061018b8561043b565b9150915060008061019b8661043b565b9150915081841480156101ad57508083145b6101b9576101b9610f20565b600061020860405180608001604052808781526020018681526020016040518060400160405280600881526020016718dbdb9cdd185b9d60c21b81525081526020016000600f0b815250610816565b905060005b858110156102ff5760005b858110156102ec5761029a89838151811061023557610235610f36565b6020026020010151828151811061024e5761024e610f36565b60200260200101518b848151811061026857610268610f36565b6020026020010151838151811061028157610281610f36565b6020026020010151600f0b610a0890919063ffffffff16565b8383815181106102ac576102ac610f36565b602002602001015182815181106102c5576102c5610f36565b6020026020010190600f0b9081600f0b8152505080806102e490610f62565b915050610218565b50806102f781610f62565b91505061020d565b50979650505050505050565b60606000806103198561043b565b91509150600061036c60405180608001604052808581526020018481526020016040518060400160405280600881526020016718dbdb9cdd185b9d60c21b81525081526020016000600f0b815250610816565b905060005b838110156104315760005b8381101561041e576103cc8789848151811061039a5761039a610f36565b602002602001015183815181106103b3576103b3610f36565b6020026020010151600f0b610a4390919063ffffffff16565b8383815181106103de576103de610f36565b602002602001015182815181106103f7576103f7610f36565b6020026020010190600f0b9081600f0b81525050808061041690610f62565b91505061037c565b508061042981610f62565b915050610371565b5095945050505050565b805160009081908061044f5761044f610f20565b60008460008151811061046457610464610f36565b60200260200101515190508181935093505050915091565b606060008061048a8461043b565b9150915060006104dd60405180608001604052808581526020018481526020016040518060400160405280600881526020016718dbdb9cdd185b9d60c21b81525081526020016000600f0b815250610816565b905060005b838110156105d65760005b838110156105c3576000600f0b87838151811061050c5761050c610f36565b6020026020010151828151811061052557610525610f36565b6020026020010151600f0b121561053d576000610571565b86828151811061054f5761054f610f36565b6020026020010151818151811061056857610568610f36565b60200260200101515b83838151811061058357610583610f36565b6020026020010151828151811061059c5761059c610f36565b6020026020010190600f0b9081600f0b8152505080806105bb90610f62565b9150506104ed565b50806105ce81610f62565b9150506104e2565b50949350505050565b60606000806105ed8461043b565b91509150600061064060405180608001604052808481526020018581526020016040518060400160405280600881526020016718dbdb9cdd185b9d60c21b81525081526020016000600f0b815250610816565b905060005b838110156105d65760005b838110156106dd5786828151811061066a5761066a610f36565b6020026020010151818151811061068357610683610f36565b602002602001015183828151811061069d5761069d610f36565b602002602001015183815181106106b6576106b6610f36565b6020026020010190600f0b9081600f0b8152505080806106d590610f62565b915050610650565b50806106e881610f62565b915050610645565b60606000806106fe8561043b565b91509150600061075160405180608001604052808581526020018481526020016040518060400160405280600881526020016718dbdb9cdd185b9d60c21b81525081526020016000600f0b815250610816565b905060005b838110156104315760005b83811015610803576107b18789848151811061077f5761077f610f36565b6020026020010151838151811061079857610798610f36565b6020026020010151600f0b610a9a90919063ffffffff16565b8383815181106107c3576107c3610f36565b602002602001015182815181106107dc576107dc610f36565b6020026020010190600f0b9081600f0b8152505080806107fb90610f62565b915050610761565b508061080e81610f62565b915050610756565b805160609067ffffffffffffffff81111561083357610833610b29565b60405190808252806020026020018201604052801561086657816020015b60608152602001906001900390816108515790505b50905060005b8251811015610a02576000836020015167ffffffffffffffff81111561089457610894610b29565b6040519080825280602002602001820160405280156108bd578160200160208202803683370190505b50905060005b84602001518110156109cf576108fd85604001516040518060400160405280600881526020016718dbdb9cdd185b9d60c21b815250610ad0565b1561093257846060015182828151811061091957610919610f36565b6020026020010190600f0b9081600f0b815250506109bd565b61095d85604001516040518060400160405280600581526020016472616e676560d81b815250610ad0565b1561098f57808560200151846109739190610f7b565b61097d9190610f9a565b82828151811061091957610919610f36565b6109bb8560400151604051806040016040528060068152602001651b9bdc9b585b60d21b815250610ad0565b505b806109c781610f62565b9150506108c3565b50808383815181106109e3576109e3610f36565b60200260200101819052505080806109fa90610f62565b91505061086c565b50919050565b6000600f83810b9083900b0160016001607f1b03198112801590610a33575060016001607f1b038113155b610a3c57600080fd5b9392505050565b600081600f0b600003610a5557600080fd5b600082600f0b604085600f0b901b81610a7057610a70610fb2565b05905060016001607f1b03198112801590610a33575060016001607f1b03811315610a3c57600080fd5b6000600f83810b9083900b0260401d60016001607f1b03198112801590610a33575060016001607f1b03811315610a3c57600080fd5b600081604051602001610ae39190610fc8565b6040516020818303038152906040528051906020012083604051602001610b0a9190610fc8565b6040516020818303038152906040528051906020012014905092915050565b634e487b7160e01b600052604160045260246000fd5b6040516080810167ffffffffffffffff81118282101715610b6257610b62610b29565b60405290565b604051601f8201601f1916810167ffffffffffffffff81118282101715610b9157610b91610b29565b604052919050565b600067ffffffffffffffff821115610bb357610bb3610b29565b5060051b60200190565b8035600f81900b8114610bcf57600080fd5b919050565b600082601f830112610be557600080fd5b81356020610bfa610bf583610b99565b610b68565b828152600592831b8501820192828201919087851115610c1957600080fd5b8387015b85811015610cb457803567ffffffffffffffff811115610c3d5760008081fd5b8801603f81018a13610c4f5760008081fd5b858101356040610c61610bf583610b99565b82815291851b8301810191888101908d841115610c7e5760008081fd5b938201935b83851015610ca357610c9485610bbd565b82529389019390890190610c83565b885250505093850193508401610c1d565b5090979650505050505050565b60008060408385031215610cd457600080fd5b823567ffffffffffffffff80821115610cec57600080fd5b610cf886838701610bd4565b93506020850135915080821115610d0e57600080fd5b50610d1b85828601610bd4565b9150509250929050565b6000602080830181845280855180835260408601915060408160051b87010192508387016000805b83811015610da457888603603f19018552825180518088529088019088880190845b81811015610d8e578351600f0b8352928a0192918a0191600101610d6f565b5090975050509386019391860191600101610d4d565b509398975050505050505050565b60008060408385031215610dc557600080fd5b823567ffffffffffffffff811115610ddc57600080fd5b610de885828601610bd4565b925050610df760208401610bbd565b90509250929050565b600060208284031215610e1257600080fd5b813567ffffffffffffffff811115610e2957600080fd5b610e3584828501610bd4565b949350505050565b60006020808385031215610e5057600080fd5b823567ffffffffffffffff80821115610e6857600080fd5b9084019060808287031215610e7c57600080fd5b610e84610b3f565b823581528383013584820152604083013582811115610ea257600080fd5b8301601f81018813610eb357600080fd5b803583811115610ec557610ec5610b29565b610ed7601f8201601f19168701610b68565b93508084528886828401011115610eed57600080fd5b808683018786013760008682860101525050816040820152610f1160608401610bbd565b60608201529695505050505050565b634e487b7160e01b600052600160045260246000fd5b634e487b7160e01b600052603260045260246000fd5b634e487b7160e01b600052601160045260246000fd5b600060018201610f7457610f74610f4c565b5060010190565b6000816000190483118215151615610f9557610f95610f4c565b500290565b60008219821115610fad57610fad610f4c565b500190565b634e487b7160e01b600052601260045260246000fd5b6000825160005b81811015610fe95760208186018101518583015201610fcf565b81811115610ff8576000828501525b50919091019291505056fea264697066735822122049350f90aacf9d7046edb850f2273bcab896143907fb0d165341ee0b82b63c6a64736f6c634300080d0033",
    "linkReferences": {}
  }
}