{
  "abi": [
    {
      "inputs": [
        {
          "internalType": "int128[][]",
          "name": "m",
          "type": "int128[][]"
        }
      ],
      "name": "shape",
      "outputs": [
        {
          "internalType": "uint256",
          "name": "",
          "type": "uint256"
        },
        {
          "internalType": "uint256",
          "name": "",
          "type": "uint256"
        }
      ],
      "stateMutability": "view",
      "type": "function"
    }
  ],
  "bytecode": {
    "object": "0x610efe61003a600b82828239805160001a60731461002d57634e487b7160e01b600052600060045260246000fd5b30600052607381538281f3fe73000000000000000000000000000000000000000030146080604052600436106100615760003560e01c80639a16d497146100665780639af3342014610092578063a1b6e8fb146100b4578063b3c00b7a146100d4578063f2b46baa146100f2575b600080fd5b610079610074366004610b91565b610112565b6040805192835260208301919091520160405180910390f35b81801561009e57600080fd5b506100b26100ad366004610d68565b610153565b005b8180156100c057600080fd5b506100b26100cf366004610daf565b61032e565b8180156100e057600080fd5b506100b26100ef366004610dd1565b50565b8180156100fe57600080fd5b506100b261010d366004610e0e565b6105ba565b805160009081908061012657610126610e3a565b60008460008151811061013b5761013b610e50565b60200260200101515190508181935093505050915091565b60005b8151811015610266576000826020015167ffffffffffffffff81111561017e5761017e610ae6565b6040519080825280602002602001820160405280156101a7578160200160208202803683370190505b50905060005b836020015181101561022a576101e784604001516040518060400160405280600881526020016718dbdb9cdd185b9d60c21b815250610970565b1561021857836060015182828151811061020357610203610e50565b6020026020010190600f0b9081600f0b815250505b8061022281610e66565b9150506101ad565b50835460018101855560008581526020908190208351610251939190910191840190610a16565b5050808061025e90610e66565b915050610156565b5060008061032684805480602002602001604051908101604052809291908181526020016000905b8282101561031d5760008481526020908190208301805460408051828502810185019091528181529283018282801561030957602002820191906000526020600020906000905b825461010083900a9004600f0b81526020601f83018190049384019360010360109093019290920291018084116102d55790505b50505050508152602001906001019061028e565b50505050610112565b505050505050565b6000806103e484805480602002602001604051908101604052809291908181526020016000905b8282101561031d576000848152602090819020830180546040805182850281018501909152818152928301828280156103d057602002820191906000526020600020906000905b825461010083900a9004600f0b81526020601f830181900493840193600103601090930192909202910180841161039c5790505b505050505081526020019060010190610355565b9150915060008061049e85805480602002602001604051908101604052809291908181526020016000905b8282101561031d5760008481526020908190208301805460408051828502810185019091528181529283018282801561048a57602002820191906000526020600020906000905b825461010083900a9004600f0b81526020601f83018190049384019360010360109093019290920291018084116104565790505b50505050508152602001906001019061040f565b9150915080841480156104b057508282145b6104bc576104bc610e3a565b60005b848110156105b15760005b8481101561059e578782815481106104e4576104e4610e50565b9060005260206000200181815481106104ff576104ff610e50565b90600052602060002090600291828204019190066010029054906101000a9004600f0b87828154811061053457610534610e50565b90600052602060002001838154811061054f5761054f610e50565b90600052602060002090600291828204019190066010026101000a8154816001600160801b030219169083600f0b6001600160801b03160217905550808061059690610e66565b9150506104ca565b50806105a981610e66565b9150506104bf565b50505050505050565b60008061067085805480602002602001604051908101604052809291908181526020016000905b8282101561031d5760008481526020908190208301805460408051828502810185019091528181529283018282801561065c57602002820191906000526020600020906000905b825461010083900a9004600f0b81526020601f83018190049384019360010360109093019290920291018084116106285790505b5050505050815260200190600101906105e1565b9150915060008061072a86805480602002602001604051908101604052809291908181526020016000905b8282101561031d5760008481526020908190208301805460408051828502810185019091528181529283018282801561071657602002820191906000526020600020906000905b825461010083900a9004600f0b81526020601f83018190049384019360010360109093019290920291018084116106e25790505b50505050508152602001906001019061069b565b915091506000806107e488805480602002602001604051908101604052809291908181526020016000905b8282101561031d576000848152602090819020830180546040805182850281018501909152818152928301828280156107d057602002820191906000526020600020906000905b825461010083900a9004600f0b81526020601f830181900493840193600103601090930192909202910180841161079c5790505b505050505081526020019060010190610755565b9150915083861480156107f657508285145b801561080157508186145b801561080c57508085145b61081857610818610e3a565b60005b868110156109645760005b86811015610951576108d58a838154811061084357610843610e50565b90600052602060002001828154811061085e5761085e610e50565b90600052602060002090600291828204019190066010029054906101000a9004600f0b8c848154811061089357610893610e50565b9060005260206000200183815481106108ae576108ae610e50565b6000918252602090912060028204015460019091166010026101000a9004600f0b906109c9565b8983815481106108e7576108e7610e50565b90600052602060002001828154811061090257610902610e50565b90600052602060002090600291828204019190066010026101000a8154816001600160801b030219169083600f0b6001600160801b03160217905550808061094990610e66565b915050610826565b508061095c81610e66565b91505061081b565b50505050505050505050565b6000816040516020016109839190610e8d565b60405160208183030381529060405280519060200120836040516020016109aa9190610e8d565b6040516020818303038152906040528051906020012014905092915050565b6000600f83810b9083900b016f7fffffffffffffffffffffffffffffff198112801590610a0657506f7fffffffffffffffffffffffffffffff8113155b610a0f57600080fd5b9392505050565b82805482825590600052602060002090600101600290048101928215610ac15791602002820160005b83821115610a8c57835183826101000a8154816001600160801b030219169083600f0b6001600160801b031602179055509260200192601001602081600f01049283019260010302610a3f565b8015610abf5782816101000a8154906001600160801b030219169055601001602081600f01049283019260010302610a8c565b505b50610acd929150610ad1565b5090565b5b80821115610acd5760008155600101610ad2565b634e487b7160e01b600052604160045260246000fd5b6040516080810167ffffffffffffffff81118282101715610b1f57610b1f610ae6565b60405290565b604051601f8201601f1916810167ffffffffffffffff81118282101715610b4e57610b4e610ae6565b604052919050565b600067ffffffffffffffff821115610b7057610b70610ae6565b5060051b60200190565b8035600f81900b8114610b8c57600080fd5b919050565b60006020808385031215610ba457600080fd5b823567ffffffffffffffff80821115610bbc57600080fd5b818501915085601f830112610bd057600080fd5b8135610be3610bde82610b56565b610b25565b818152600591821b8401850191858201919089841115610c0257600080fd5b8686015b84811015610c9557803586811115610c1e5760008081fd5b8701603f81018c13610c305760008081fd5b888101356040610c42610bde83610b56565b82815291851b83018101918b8101908f841115610c5f5760008081fd5b938201935b83851015610c8457610c7585610b7a565b8252938c0193908c0190610c64565b885250505093880193508701610c06565b50909998505050505050505050565b600060808284031215610cb657600080fd5b610cbe610afc565b90508135815260208083013581830152604083013567ffffffffffffffff80821115610ce957600080fd5b818501915085601f830112610cfd57600080fd5b813581811115610d0f57610d0f610ae6565b610d21601f8201601f19168501610b25565b91508082528684828501011115610d3757600080fd5b8084840185840137600084828401015250806040850152505050610d5d60608301610b7a565b606082015292915050565b60008060408385031215610d7b57600080fd5b82359150602083013567ffffffffffffffff811115610d9957600080fd5b610da585828601610ca4565b9150509250929050565b60008060408385031215610dc257600080fd5b50508035926020909101359150565b600060208284031215610de357600080fd5b813567ffffffffffffffff811115610dfa57600080fd5b610e0684828501610ca4565b949350505050565b600080600060608486031215610e2357600080fd5b505081359360208301359350604090920135919050565b634e487b7160e01b600052600160045260246000fd5b634e487b7160e01b600052603260045260246000fd5b600060018201610e8657634e487b7160e01b600052601160045260246000fd5b5060010190565b6000825160005b81811015610eae5760208186018101518583015201610e94565b81811115610ebd576000828501525b50919091019291505056fea2646970667358221220f1edc031bae548c058db460899462a84c16a2771f34b47b5f368e881b7c9874264736f6c634300080d0033",
    "linkReferences": {}
  }
}